{
  "contractName": "AssetsRegistry",
  "abi": [
    {
      "constant": true,
      "inputs": [
        {
          "name": "",
          "type": "uint256"
        }
      ],
      "name": "tickersList",
      "outputs": [
        {
          "name": "",
          "type": "bytes32"
        }
      ],
      "payable": false,
      "stateMutability": "view",
      "type": "function"
    },
    {
      "constant": false,
      "inputs": [],
      "name": "renounceOwnership",
      "outputs": [],
      "payable": false,
      "stateMutability": "nonpayable",
      "type": "function"
    },
    {
      "constant": true,
      "inputs": [],
      "name": "owner",
      "outputs": [
        {
          "name": "",
          "type": "address"
        }
      ],
      "payable": false,
      "stateMutability": "view",
      "type": "function"
    },
    {
      "constant": true,
      "inputs": [],
      "name": "isOwner",
      "outputs": [
        {
          "name": "",
          "type": "bool"
        }
      ],
      "payable": false,
      "stateMutability": "view",
      "type": "function"
    },
    {
      "constant": true,
      "inputs": [
        {
          "name": "",
          "type": "bytes32"
        }
      ],
      "name": "assets",
      "outputs": [
        {
          "name": "",
          "type": "bytes32"
        }
      ],
      "payable": false,
      "stateMutability": "view",
      "type": "function"
    },
    {
      "constant": false,
      "inputs": [
        {
          "name": "newOwner",
          "type": "address"
        }
      ],
      "name": "transferOwnership",
      "outputs": [],
      "payable": false,
      "stateMutability": "nonpayable",
      "type": "function"
    },
    {
      "inputs": [
        {
          "name": "tickers",
          "type": "bytes32[]"
        },
        {
          "name": "reserveAddresses",
          "type": "bytes32[]"
        }
      ],
      "payable": false,
      "stateMutability": "nonpayable",
      "type": "constructor"
    },
    {
      "anonymous": false,
      "inputs": [
        {
          "indexed": true,
          "name": "previousOwner",
          "type": "address"
        },
        {
          "indexed": true,
          "name": "newOwner",
          "type": "address"
        }
      ],
      "name": "OwnershipTransferred",
      "type": "event"
    },
    {
      "constant": true,
      "inputs": [],
      "name": "getTickers",
      "outputs": [
        {
          "name": "",
          "type": "bytes32[]"
        }
      ],
      "payable": false,
      "stateMutability": "view",
      "type": "function"
    },
    {
      "constant": true,
      "inputs": [],
      "name": "getReserveAddresses",
      "outputs": [
        {
          "name": "reserveAddresses",
          "type": "bytes32[]"
        }
      ],
      "payable": false,
      "stateMutability": "view",
      "type": "function"
    },
    {
      "constant": true,
      "inputs": [],
      "name": "getTickersLength",
      "outputs": [
        {
          "name": "",
          "type": "uint256"
        }
      ],
      "payable": false,
      "stateMutability": "view",
      "type": "function"
    },
    {
      "constant": false,
      "inputs": [
        {
          "name": "ticker",
          "type": "bytes32"
        },
        {
          "name": "reserveAddress",
          "type": "bytes32"
        }
      ],
      "name": "setAsset",
      "outputs": [],
      "payable": false,
      "stateMutability": "nonpayable",
      "type": "function"
    },
    {
      "constant": false,
      "inputs": [
        {
          "name": "ticker",
          "type": "bytes32"
        }
      ],
      "name": "deleteAsset",
      "outputs": [],
      "payable": false,
      "stateMutability": "nonpayable",
      "type": "function"
    },
    {
      "constant": false,
      "inputs": [],
      "name": "resetAssets",
      "outputs": [],
      "payable": false,
      "stateMutability": "nonpayable",
      "type": "function"
    }
  ],
  "bytecode": "0x60806040523480156200001157600080fd5b506040516200121f3803806200121f833981018060405260408110156200003757600080fd5b8101908080516401000000008111156200005057600080fd5b828101905060208101848111156200006757600080fd5b81518560208202830111640100000000821117156200008557600080fd5b50509291906020018051640100000000811115620000a257600080fd5b82810190506020810184811115620000b957600080fd5b8151856020820283011164010000000082111715620000d757600080fd5b5050929190505050336000806101000a81548173ffffffffffffffffffffffffffffffffffffffff021916908373ffffffffffffffffffffffffffffffffffffffff1602179055506000809054906101000a900473ffffffffffffffffffffffffffffffffffffffff1673ffffffffffffffffffffffffffffffffffffffff16600073ffffffffffffffffffffffffffffffffffffffff167f8be0079c531659141344cd1fd0a4f28419497f9722a3daafe3b4186f6b6457e060405160405180910390a38051825114620001f7576040517f08c379a0000000000000000000000000000000000000000000000000000000008152600401808060200182810382526030815260200180620011ef6030913960400191505060405180910390fd5b60008090505b8251811015620003b1576000801b8382815181106200021857fe5b6020026020010151141562000295576040517f08c379a00000000000000000000000000000000000000000000000000000000081526004018080602001828103825260158152602001807f5469636b65722063616e277420626520656d707479000000000000000000000081525060200191505060405180910390fd5b6000801b828281518110620002a657fe5b6020026020010151141562000323576040517f08c379a00000000000000000000000000000000000000000000000000000000081526004018080602001828103825260168152602001807f416464726573732063616e277420626520656d7074790000000000000000000081525060200191505060405180910390fd5b8181815181106200033057fe5b6020026020010151600160008584815181106200034957fe5b602002602001015181526020019081526020016000208190555060028382815181106200037257fe5b602002602001015190806001815401808255809150509060018203906000526020600020016000909192909190915055508080600101915050620001fd565b505050610e2b80620003c46000396000f3fe608060405234801561001057600080fd5b50600436106100b45760003560e01c806377e6b6a61161007157806377e6b6a6146101c45780638da5cb5b146101f25780638f32d59b1461023c5780639fda5b661461025e578063c95f35e2146102a0578063f2fde38b146102ff576100b4565b806301068dea146100b95780631476d0b7146101185780633406bfac146101365780635e164bb214610140578063706ed5cf14610178578063715018a6146101ba575b600080fd5b6100c1610343565b6040518080602001828103825283818151815260200191508051906020019060200280838360005b838110156101045780820151818401526020810190506100e9565b505050509050019250505060405180910390f35b61012061039b565b6040518082815260200191505060405180910390f35b61013e6103a8565b005b6101766004803603604081101561015657600080fd5b810190808035906020019092919080359060200190929190505050610487565b005b6101a46004803603602081101561018e57600080fd5b8101908080359060200190929190505050610653565b6040518082815260200191505060405180910390f35b6101c2610674565b005b6101f0600480360360208110156101da57600080fd5b81019080803590602001909291905050506107ad565b005b6101fa610942565b604051808273ffffffffffffffffffffffffffffffffffffffff1673ffffffffffffffffffffffffffffffffffffffff16815260200191505060405180910390f35b61024461096b565b604051808215151515815260200191505060405180910390f35b61028a6004803603602081101561027457600080fd5b81019080803590602001909291905050506109c2565b6040518082815260200191505060405180910390f35b6102a86109da565b6040518080602001828103825283818151815260200191508051906020019060200280838360005b838110156102eb5780820151818401526020810190506102d0565b505050509050019250505060405180910390f35b6103416004803603602081101561031557600080fd5b81019080803573ffffffffffffffffffffffffffffffffffffffff169060200190929190505050610a46565b005b6060600280548060200260200160405190810160405280929190818152602001828054801561039157602002820191906000526020600020905b81548152602001906001019080831161037d575b5050505050905090565b6000600280549050905090565b6103b061096b565b610422576040517f08c379a00000000000000000000000000000000000000000000000000000000081526004018080602001828103825260208152602001807f4f776e61626c653a2063616c6c6572206973206e6f7420746865206f776e657281525060200191505060405180910390fd5b60008090505b600280549050811015610474576000801b600160006002848154811061044a57fe5b90600052602060002001548152602001908152602001600020819055508080600101915050610428565b5060006002816104849190610d88565b50565b61048f61096b565b610501576040517f08c379a00000000000000000000000000000000000000000000000000000000081526004018080602001828103825260208152602001807f4f776e61626c653a2063616c6c6572206973206e6f7420746865206f776e657281525060200191505060405180910390fd5b6000801b82141561057a576040517f08c379a00000000000000000000000000000000000000000000000000000000081526004018080602001828103825260158152602001807f5469636b65722063616e277420626520656d707479000000000000000000000081525060200191505060405180910390fd5b6000801b8114156105f3576040517f08c379a00000000000000000000000000000000000000000000000000000000081526004018080602001828103825260168152602001807f416464726573732063616e277420626520656d7074790000000000000000000081525060200191505060405180910390fd5b6105fc82610acc565b1561060b5761060a82610aef565b5b80600160008481526020019081526020016000208190555060028290806001815401808255809150509060018203906000526020600020016000909192909190915055505050565b6002818154811061066057fe5b906000526020600020016000915090505481565b61067c61096b565b6106ee576040517f08c379a00000000000000000000000000000000000000000000000000000000081526004018080602001828103825260208152602001807f4f776e61626c653a2063616c6c6572206973206e6f7420746865206f776e657281525060200191505060405180910390fd5b600073ffffffffffffffffffffffffffffffffffffffff166000809054906101000a900473ffffffffffffffffffffffffffffffffffffffff1673ffffffffffffffffffffffffffffffffffffffff167f8be0079c531659141344cd1fd0a4f28419497f9722a3daafe3b4186f6b6457e060405160405180910390a360008060006101000a81548173ffffffffffffffffffffffffffffffffffffffff021916908373ffffffffffffffffffffffffffffffffffffffff160217905550565b6107b561096b565b610827576040517f08c379a00000000000000000000000000000000000000000000000000000000081526004018080602001828103825260208152602001807f4f776e61626c653a2063616c6c6572206973206e6f7420746865206f776e657281525060200191505060405180910390fd5b6000801b8114156108a0576040517f08c379a00000000000000000000000000000000000000000000000000000000081526004018080602001828103825260158152602001807f5469636b65722063616e277420626520656d707479000000000000000000000081525060200191505060405180910390fd5b6108a981610acc565b61091b576040517f08c379a00000000000000000000000000000000000000000000000000000000081526004018080602001828103825260148152602001807f5469636b657220646f65736e277420657869737400000000000000000000000081525060200191505060405180910390fd5b6000801b600160008381526020019081526020016000208190555061093f81610aef565b50565b60008060009054906101000a900473ffffffffffffffffffffffffffffffffffffffff16905090565b60008060009054906101000a900473ffffffffffffffffffffffffffffffffffffffff1673ffffffffffffffffffffffffffffffffffffffff163373ffffffffffffffffffffffffffffffffffffffff1614905090565b60016020528060005260406000206000915090505481565b606060008090505b600280549050811015610a3f576001600060028381548110610a0057fe5b9060005260206000200154815260200190815260200160002054828281518110610a2657fe5b60200260200101818152505080806001019150506109e2565b5080905090565b610a4e61096b565b610ac0576040517f08c379a00000000000000000000000000000000000000000000000000000000081526004018080602001828103825260208152602001807f4f776e61626c653a2063616c6c6572206973206e6f7420746865206f776e657281525060200191505060405180910390fd5b610ac981610b74565b50565b60008060001b600160008481526020019081526020016000205414159050919050565b6000610afa82610cb8565b9050600260016002805490500381548110610b1157fe5b906000526020600020015460028281548110610b2957fe5b9060005260206000200181905550600260016002805490500381548110610b4c57fe5b90600052602060002001600090556002805480919060019003610b6f9190610d88565b505050565b600073ffffffffffffffffffffffffffffffffffffffff168173ffffffffffffffffffffffffffffffffffffffff161415610bfa576040517f08c379a0000000000000000000000000000000000000000000000000000000008152600401808060200182810382526026815260200180610dda6026913960400191505060405180910390fd5b8073ffffffffffffffffffffffffffffffffffffffff166000809054906101000a900473ffffffffffffffffffffffffffffffffffffffff1673ffffffffffffffffffffffffffffffffffffffff167f8be0079c531659141344cd1fd0a4f28419497f9722a3daafe3b4186f6b6457e060405160405180910390a3806000806101000a81548173ffffffffffffffffffffffffffffffffffffffff021916908373ffffffffffffffffffffffffffffffffffffffff16021790555050565b6000610cc382610acc565b610d35576040517f08c379a00000000000000000000000000000000000000000000000000000000081526004018080602001828103825260148152602001807f5469636b657220646f65736e277420657869737400000000000000000000000081525060200191505060405180910390fd5b60008090505b600280549050811015610d7d578260028281548110610d5657fe5b90600052602060002001541415610d705780915050610d83565b8080600101915050610d3b565b50600090505b919050565b815481835581811115610daf57818360005260206000209182019101610dae9190610db4565b5b505050565b610dd691905b80821115610dd2576000816000905550600101610dba565b5090565b9056fe4f776e61626c653a206e6577206f776e657220697320746865207a65726f2061646472657373a165627a7a72305820cc6eebb98c92c394093ac5538c69505080eaaf4dec9198be110c945ec3ed72cf00295469636b657273206c656e677468206d75737420626520657175616c20746f20616464726573736573206c656e677468",
  "source": "pragma solidity >=0.4.21 <0.6.0;\n\nimport \"@openzeppelin/contracts/ownership/Ownable.sol\";\n\ncontract AssetsRegistry is Ownable {\n    /**\n     * @dev Key is a ticker, values is a destination address\n     */\n    mapping(bytes32 => bytes32) public assets;\n\n    bytes32[] public tickersList;\n\n    constructor(bytes32[] memory tickers, bytes32[] memory reserveAddresses) public {\n        require(tickers.length == reserveAddresses.length, \"Tickers length must be equal to addresses length\");\n\n        for (uint i = 0; i < tickers.length; i++) {\n            require(tickers[i] != 0x0, \"Ticker can't be empty\");\n            require(reserveAddresses[i] != 0x0, \"Address can't be empty\");\n\n            assets[tickers[i]] = reserveAddresses[i];\n            tickersList.push(tickers[i]);\n        }\n    }\n\n    function getTickers() external view returns(bytes32[] memory) {\n        return tickersList;\n    }\n\n    function getReserveAddresses() external view returns(bytes32[] memory reserveAddresses) {\n        for (uint i = 0; i < tickersList.length; i++) {\n            reserveAddresses[i] = assets[tickersList[i]];\n        }\n\n        return reserveAddresses;\n    }\n\n    function getTickersLength() external view returns(uint256) {\n        return tickersList.length;\n    }\n\n    function setAsset(bytes32 ticker, bytes32 reserveAddress) external onlyOwner {\n        require(ticker != 0x0, \"Ticker can't be empty\");\n        require(reserveAddress != 0x0, \"Address can't be empty\");\n\n        if (hasTicker(ticker)) {\n            removeFromArray(ticker);\n        }\n\n        assets[ticker] = reserveAddress;\n        tickersList.push(ticker);\n    }\n\n    function deleteAsset(bytes32 ticker) external onlyOwner {\n        require(ticker != 0x0, \"Ticker can't be empty\");\n        require(hasTicker(ticker), \"Ticker doesn't exist\");\n\n        assets[ticker] = 0x0;\n        removeFromArray(ticker);\n    }\n\n    function resetAssets() external onlyOwner {\n        for (uint i = 0; i < tickersList.length; i++) {\n            assets[tickersList[i]] = 0x0;\n        }\n\n        tickersList.length = 0;\n    }\n\n    function removeFromArray(bytes32 ticker) internal {\n        uint index = getIndexByTicker(ticker);\n\n        tickersList[index] = tickersList[tickersList.length-1];\n        delete tickersList[tickersList.length - 1];\n        tickersList.length--;\n    }\n\n    function hasTicker(bytes32 ticker) internal view returns (bool) {\n        return assets[ticker] != 0x0;\n    }\n\n    function getIndexByTicker(bytes32 ticker) internal view returns (uint) {\n        require(hasTicker(ticker), \"Ticker doesn't exist\");\n\n        for (uint i = 0; i < tickersList.length; i++) {\n            if (tickersList[i] == ticker) {\n                return i;\n            }\n        }\n\n        return 0;\n    }\n}\n",
  "sourcePath": "/Users/maksm_tolo/Work/emergeum-assets-registry/contracts/AssetsRegistry.sol",
  "compiler": {
    "name": "solc",
    "version": "0.5.8+commit.23d335f2.Emscripten.clang"
  },
  "schemaVersion": "3.0.16",
  "updatedAt": "2019-10-26T11:47:55.963Z",
  "devdoc": {
    "methods": {
      "isOwner()": {
        "details": "Returns true if the caller is the current owner."
      },
      "owner()": {
        "details": "Returns the address of the current owner."
      },
      "renounceOwnership()": {
        "details": "Leaves the contract without owner. It will not be possible to call `onlyOwner` functions anymore. Can only be called by the current owner.     * > Note: Renouncing ownership will leave the contract without an owner, thereby removing any functionality that is only available to the owner."
      },
      "transferOwnership(address)": {
        "details": "Transfers ownership of the contract to a new account (`newOwner`). Can only be called by the current owner."
      }
    }
  },
  "userdoc": {
    "methods": {}
  }
}