{
  "contractName": "AssetsRegistryFactory",
  "abi": [
    {
      "constant": true,
      "inputs": [
        {
          "name": "",
          "type": "address"
        }
      ],
      "name": "registries",
      "outputs": [
        {
          "name": "",
          "type": "address"
        }
      ],
      "payable": false,
      "stateMutability": "view",
      "type": "function"
    },
    {
      "anonymous": false,
      "inputs": [
        {
          "indexed": false,
          "name": "creator",
          "type": "address"
        },
        {
          "indexed": false,
          "name": "registry",
          "type": "address"
        }
      ],
      "name": "NewRegistry",
      "type": "event"
    },
    {
      "constant": false,
      "inputs": [
        {
          "name": "tickers",
          "type": "bytes32[]"
        },
        {
          "name": "reserveAddresses",
          "type": "string[]"
        }
      ],
      "name": "newRegistry",
      "outputs": [
        {
          "name": "",
          "type": "address"
        }
      ],
      "payable": false,
      "stateMutability": "nonpayable",
      "type": "function"
    }
  ],
  "bytecode": "0x608060405234801561001057600080fd5b50612721806100206000396000f3fe60806040523480156200001157600080fd5b50600436106200003a5760003560e01c806396aca454146200003f578063caed80df1462000075575b600080fd5b6200005d60048036036200005791908101906200041d565b620000ab565b6040516200006c9190620006a4565b60405180910390f35b6200009360048036036200008d9190810190620003f1565b6200021c565b604051620000a29190620006a4565b60405180910390f35b6000808383604051620000be906200024f565b620000cb92919062000669565b604051809103906000f080158015620000e8573d6000803e3d6000fd5b5090508073ffffffffffffffffffffffffffffffffffffffff1663f2fde38b336040518263ffffffff1660e01b81526004016200012691906200061f565b600060405180830381600087803b1580156200014157600080fd5b505af115801562000156573d6000803e3d6000fd5b50505050806000803373ffffffffffffffffffffffffffffffffffffffff1673ffffffffffffffffffffffffffffffffffffffff16815260200190815260200160002060006101000a81548173ffffffffffffffffffffffffffffffffffffffff021916908373ffffffffffffffffffffffffffffffffffffffff1602179055507fadd7af43f9a85eafaa90553363766e67ad81235c4895856c4d14384337d0ce1133826040516200020a9291906200063c565b60405180910390a18091505092915050565b60006020528060005260406000206000915054906101000a900473ffffffffffffffffffffffffffffffffffffffff1681565b611dc5806200092383390190565b6000813590506200026e81620008ee565b92915050565b600082601f8301126200028657600080fd5b81356200029d6200029782620006ef565b620006c1565b91508181835260208401935060208101905083856020840282011115620002c357600080fd5b60005b83811015620002f75781620002dc88826200037e565b845260208401935060208301925050600181019050620002c6565b5050505092915050565b600082601f8301126200031357600080fd5b81356200032a620003248262000718565b620006c1565b9150818183526020840193506020810190508360005b8381101562000374578135860162000359888262000395565b84526020840193506020830192505060018101905062000340565b5050505092915050565b6000813590506200038f8162000908565b92915050565b600082601f830112620003a757600080fd5b8135620003be620003b88262000741565b620006c1565b91508082526020830160208301858383011115620003db57600080fd5b620003e883828462000898565b50505092915050565b6000602082840312156200040457600080fd5b600062000414848285016200025d565b91505092915050565b600080604083850312156200043157600080fd5b600083013567ffffffffffffffff8111156200044c57600080fd5b6200045a8582860162000274565b925050602083013567ffffffffffffffff8111156200047857600080fd5b620004868582860162000301565b9150509250929050565b60006200049e8383620005bc565b60208301905092915050565b6000620004b88383620005de565b905092915050565b620004cb8162000834565b82525050565b6000620004de8262000788565b620004ea8185620007c3565b9350620004f7836200076e565b8060005b838110156200052e57815162000512888262000490565b97506200051f83620007a9565b925050600181019050620004fb565b5085935050505092915050565b6000620005488262000793565b620005548185620007d4565b93508360208202850162000568856200077b565b8060005b85811015620005aa5784840389528151620005888582620004aa565b94506200059583620007b6565b925060208a019950506001810190506200056c565b50829750879550505050505092915050565b620005c7816200080a565b82525050565b620005d88162000848565b82525050565b6000620005eb826200079e565b620005f78185620007e5565b935062000609818560208601620008a7565b6200061481620008dd565b840191505092915050565b6000602082019050620006366000830184620004c0565b92915050565b6000604082019050620006536000830185620004c0565b620006626020830184620005cd565b9392505050565b60006040820190508181036000830152620006858185620004d1565b905081810360208301526200069b81846200053b565b90509392505050565b6000602082019050620006bb6000830184620005cd565b92915050565b6000604051905081810181811067ffffffffffffffff82111715620006e557600080fd5b8060405250919050565b600067ffffffffffffffff8211156200070757600080fd5b602082029050602081019050919050565b600067ffffffffffffffff8211156200073057600080fd5b602082029050602081019050919050565b600067ffffffffffffffff8211156200075957600080fd5b601f19601f8301169050602081019050919050565b6000602082019050919050565b6000602082019050919050565b600081519050919050565b600081519050919050565b600081519050919050565b6000602082019050919050565b6000602082019050919050565b600082825260208201905092915050565b600082825260208201905092915050565b600082825260208201905092915050565b6000620008038262000814565b9050919050565b6000819050919050565b600073ffffffffffffffffffffffffffffffffffffffff82169050919050565b6000620008418262000870565b9050919050565b600062000855826200085c565b9050919050565b6000620008698262000814565b9050919050565b60006200087d8262000884565b9050919050565b6000620008918262000814565b9050919050565b82818337600083830152505050565b60005b83811015620008c7578082015181840152602081019050620008aa565b83811115620008d7576000848401525b50505050565b6000601f19601f8301169050919050565b620008f981620007f6565b81146200090557600080fd5b50565b62000913816200080a565b81146200091f57600080fd5b5056fe60806040523480156200001157600080fd5b5060405162001dc538038062001dc583398101806040526200003791908101906200053e565b336000806101000a81548173ffffffffffffffffffffffffffffffffffffffff021916908373ffffffffffffffffffffffffffffffffffffffff1602179055506000809054906101000a900473ffffffffffffffffffffffffffffffffffffffff1673ffffffffffffffffffffffffffffffffffffffff16600073ffffffffffffffffffffffffffffffffffffffff167f8be0079c531659141344cd1fd0a4f28419497f9722a3daafe3b4186f6b6457e060405160405180910390a380518251146200013a576040517f08c379a00000000000000000000000000000000000000000000000000000000081526004016200013190620006bf565b60405180910390fd5b60008090505b8251811015620002ba576200016f8382815181106200015b57fe5b6020026020010151620002c360201b60201c565b15620001b2576040517f08c379a0000000000000000000000000000000000000000000000000000000008152600401620001a9906200069d565b60405180910390fd5b620001d7828281518110620001c357fe5b60200260200101516200030560201b60201c565b156200021a576040517f08c379a00000000000000000000000000000000000000000000000000000000081526004016200021190620006e1565b60405180910390fd5b8181815181106200022757fe5b6020026020010151600160008584815181106200024057fe5b6020026020010151815260200190815260200160002090805190602001906200026b92919062000312565b5060028382815181106200027b57fe5b60200260200101519080600181540180825580915050906001820390600052602060002001600090919290919091505550808060010191505062000140565b5050506200081b565b60008060f81b82600060208110620002d757fe5b1a60f81b7effffffffffffffffffffffffffffffffffffffffffffffffffffffffffffff1916149050919050565b6000808251149050919050565b828054600181600116156101000203166002900490600052602060002090601f016020900481019282601f106200035557805160ff191683800117855562000386565b8280016001018555821562000386579182015b828111156200038557825182559160200191906001019062000368565b5b50905062000395919062000399565b5090565b620003be91905b80821115620003ba576000816000905550600101620003a0565b5090565b90565b600082601f830112620003d357600080fd5b8151620003ea620003e48262000731565b62000703565b915081818352602084019350602081019050838560208402820111156200041057600080fd5b60005b83811015620004445781620004298882620004cb565b84526020840193506020830192505060018101905062000413565b5050505092915050565b600082601f8301126200046057600080fd5b81516200047762000471826200075a565b62000703565b9150818183526020840193506020810190508360005b83811015620004c15781518601620004a68882620004e2565b8452602084019350602083019250506001810190506200048d565b5050505092915050565b600081519050620004dc8162000801565b92915050565b600082601f830112620004f457600080fd5b81516200050b620005058262000783565b62000703565b915080825260208301602083018583830111156200052857600080fd5b62000535838284620007cb565b50505092915050565b600080604083850312156200055257600080fd5b600083015167ffffffffffffffff8111156200056d57600080fd5b6200057b85828601620003c1565b925050602083015167ffffffffffffffff8111156200059957600080fd5b620005a7858286016200044e565b9150509250929050565b6000620005c0601583620007b0565b91507f5469636b65722063616e277420626520656d70747900000000000000000000006000830152602082019050919050565b600062000602603083620007b0565b91507f5469636b657273206c656e677468206d75737420626520657175616c20746f2060008301527f616464726573736573206c656e677468000000000000000000000000000000006020830152604082019050919050565b60006200066a601683620007b0565b91507f416464726573732063616e277420626520656d707479000000000000000000006000830152602082019050919050565b60006020820190508181036000830152620006b881620005b1565b9050919050565b60006020820190508181036000830152620006da81620005f3565b9050919050565b60006020820190508181036000830152620006fc816200065b565b9050919050565b6000604051905081810181811067ffffffffffffffff821117156200072757600080fd5b8060405250919050565b600067ffffffffffffffff8211156200074957600080fd5b602082029050602081019050919050565b600067ffffffffffffffff8211156200077257600080fd5b602082029050602081019050919050565b600067ffffffffffffffff8211156200079b57600080fd5b601f19601f8301169050602081019050919050565b600082825260208201905092915050565b6000819050919050565b60005b83811015620007eb578082015181840152602081019050620007ce565b83811115620007fb576000848401525b50505050565b6200080c81620007c1565b81146200081857600080fd5b50565b61159a806200082b6000396000f3fe608060405234801561001057600080fd5b50600436106100cf5760003560e01c806377e6b6a61161008c5780639fda5b66116100665780639fda5b66146101ca578063b1188c5c146101fa578063f2fde38b14610216578063fae45ad514610232576100cf565b806377e6b6a6146101725780638da5cb5b1461018e5780638f32d59b146101ac576100cf565b806301068dea146100d45780631476d0b7146100f25780632395898f146101105780633406bfac1461012e578063706ed5cf14610138578063715018a614610168575b600080fd5b6100dc610262565b6040516100e99190611295565b60405180910390f35b6100fa6102ba565b60405161010791906113d1565b60405180910390f35b6101186102c7565b60405161012591906112b7565b60405180910390f35b610136610406565b005b610152600480360361014d9190810190610f2f565b6104b6565b60405161015f91906112f4565b60405180910390f35b6101706104d7565b005b61018c60048036036101879190810190610eae565b6105dd565b005b6101966106e0565b6040516101a3919061127a565b60405180910390f35b6101b4610709565b6040516101c191906112d9565b60405180910390f35b6101e460048036036101df9190810190610eae565b610760565b6040516101f1919061130f565b60405180910390f35b610214600480360361020f9190810190610ed7565b610810565b005b610230600480360361022b9190810190610e85565b610999565b005b61024c60048036036102479190810190610eae565b6109ec565b60405161025991906112d9565b60405180910390f35b606060028054806020026020016040519081016040528092919081815260200182805480156102b057602002820191906000526020600020905b81548152602001906001019080831161029c575b5050505050905090565b6000600280549050905090565b606060028054905060405190808252806020026020018201604052801561030257816020015b60608152602001906001900390816102ed5790505b50905060008090505b6002805490508110156103ff57600160006002838154811061032957fe5b906000526020600020015481526020019081526020016000208054600181600116156101000203166002900480601f0160208091040260200160405190810160405280929190818152602001828054600181600116156101000203166002900480156103d65780601f106103ab576101008083540402835291602001916103d6565b820191906000526020600020905b8154815290600101906020018083116103b957829003601f168201915b50505050508282815181106103e757fe5b6020026020010181905250808060010191505061030b565b5080905090565b61040e610709565b61044d576040517f08c379a000000000000000000000000000000000000000000000000000000000815260040161044490611371565b60405180910390fd5b60008090505b6002805490508110156104a357600160006002838154811061047157fe5b9060005260206000200154815260200190815260200160002060006104969190610cbe565b8080600101915050610453565b5060006002816104b39190610d06565b50565b600281815481106104c357fe5b906000526020600020016000915090505481565b6104df610709565b61051e576040517f08c379a000000000000000000000000000000000000000000000000000000000815260040161051590611371565b60405180910390fd5b600073ffffffffffffffffffffffffffffffffffffffff166000809054906101000a900473ffffffffffffffffffffffffffffffffffffffff1673ffffffffffffffffffffffffffffffffffffffff167f8be0079c531659141344cd1fd0a4f28419497f9722a3daafe3b4186f6b6457e060405160405180910390a360008060006101000a81548173ffffffffffffffffffffffffffffffffffffffff021916908373ffffffffffffffffffffffffffffffffffffffff160217905550565b6105e5610709565b610624576040517f08c379a000000000000000000000000000000000000000000000000000000000815260040161061b90611371565b60405180910390fd5b61062d81610a20565b1561066d576040517f08c379a000000000000000000000000000000000000000000000000000000000815260040161066490611391565b60405180910390fd5b610676816109ec565b6106b5576040517f08c379a00000000000000000000000000000000000000000000000000000000081526004016106ac90611351565b60405180910390fd5b6106be81610a61565b6001600082815260200190815260200160002060006106dd9190610cbe565b50565b60008060009054906101000a900473ffffffffffffffffffffffffffffffffffffffff16905090565b60008060009054906101000a900473ffffffffffffffffffffffffffffffffffffffff1673ffffffffffffffffffffffffffffffffffffffff163373ffffffffffffffffffffffffffffffffffffffff1614905090565b60016020528060005260406000206000915090508054600181600116156101000203166002900480601f0160208091040260200160405190810160405280929190818152602001828054600181600116156101000203166002900480156108085780601f106107dd57610100808354040283529160200191610808565b820191906000526020600020905b8154815290600101906020018083116107eb57829003601f168201915b505050505081565b610818610709565b610857576040517f08c379a000000000000000000000000000000000000000000000000000000000815260040161084e90611371565b60405180910390fd5b61086083610a20565b156108a0576040517f08c379a000000000000000000000000000000000000000000000000000000000815260040161089790611391565b60405180910390fd5b6108ed82828080601f016020809104026020016040519081016040528093929190818152602001838380828437600081840152601f19601f82011690508083019250505050505050610ae6565b1561092d576040517f08c379a0000000000000000000000000000000000000000000000000000000008152600401610924906113b1565b60405180910390fd5b610936836109ec565b156109455761094483610a61565b5b8181600160008681526020019081526020016000209190610967929190610d32565b506002839080600181540180825580915050906001820390600052602060002001600090919290919091505550505050565b6109a1610709565b6109e0576040517f08c379a00000000000000000000000000000000000000000000000000000000081526004016109d790611371565b60405180910390fd5b6109e981610af3565b50565b6000806001600084815260200190815260200160002080546001816001161561010002031660029004905014159050919050565b60008060f81b82600060208110610a3357fe5b1a60f81b7effffffffffffffffffffffffffffffffffffffffffffffffffffffffffffff1916149050919050565b6000610a6c82610c21565b9050600260016002805490500381548110610a8357fe5b906000526020600020015460028281548110610a9b57fe5b9060005260206000200181905550600260016002805490500381548110610abe57fe5b90600052602060002001600090556002805480919060019003610ae19190610d06565b505050565b6000808251149050919050565b600073ffffffffffffffffffffffffffffffffffffffff168173ffffffffffffffffffffffffffffffffffffffff161415610b63576040517f08c379a0000000000000000000000000000000000000000000000000000000008152600401610b5a90611331565b60405180910390fd5b8073ffffffffffffffffffffffffffffffffffffffff166000809054906101000a900473ffffffffffffffffffffffffffffffffffffffff1673ffffffffffffffffffffffffffffffffffffffff167f8be0079c531659141344cd1fd0a4f28419497f9722a3daafe3b4186f6b6457e060405160405180910390a3806000806101000a81548173ffffffffffffffffffffffffffffffffffffffff021916908373ffffffffffffffffffffffffffffffffffffffff16021790555050565b6000610c2c826109ec565b610c6b576040517f08c379a0000000000000000000000000000000000000000000000000000000008152600401610c6290611351565b60405180910390fd5b60008090505b600280549050811015610cb3578260028281548110610c8c57fe5b90600052602060002001541415610ca65780915050610cb9565b8080600101915050610c71565b50600090505b919050565b50805460018160011615610100020316600290046000825580601f10610ce45750610d03565b601f016020900490600052602060002090810190610d029190610db2565b5b50565b815481835581811115610d2d57818360005260206000209182019101610d2c9190610dd7565b5b505050565b828054600181600116156101000203166002900490600052602060002090601f016020900481019282601f10610d7357803560ff1916838001178555610da1565b82800160010185558215610da1579182015b82811115610da0578235825591602001919060010190610d85565b5b509050610dae9190610db2565b5090565b610dd491905b80821115610dd0576000816000905550600101610db8565b5090565b90565b610df991905b80821115610df5576000816000905550600101610ddd565b5090565b90565b600081359050610e0b8161151b565b92915050565b600081359050610e2081611532565b92915050565b60008083601f840112610e3857600080fd5b8235905067ffffffffffffffff811115610e5157600080fd5b602083019150836001820283011115610e6957600080fd5b9250929050565b600081359050610e7f81611549565b92915050565b600060208284031215610e9757600080fd5b6000610ea584828501610dfc565b91505092915050565b600060208284031215610ec057600080fd5b6000610ece84828501610e11565b91505092915050565b600080600060408486031215610eec57600080fd5b6000610efa86828701610e11565b935050602084013567ffffffffffffffff811115610f1757600080fd5b610f2386828701610e26565b92509250509250925092565b600060208284031215610f4157600080fd5b6000610f4f84828501610e70565b91505092915050565b6000610f648383611075565b60208301905092915050565b6000610f7c8383611093565b905092915050565b610f8d81611485565b82525050565b6000610f9e82611406565b610fa88185611441565b9350610fb3836113ec565b8060005b83811015610fe4578151610fcb8882610f58565b9750610fd683611427565b925050600181019050610fb7565b5085935050505092915050565b6000610ffc82611411565b6110068185611452565b935083602082028501611018856113f9565b8060005b8581101561105457848403895281516110358582610f70565b945061104083611434565b925060208a0199505060018101905061101c565b50829750879550505050505092915050565b61106f81611497565b82525050565b61107e816114a3565b82525050565b61108d816114a3565b82525050565b600061109e8261141c565b6110a88185611463565b93506110b88185602086016114d7565b6110c18161150a565b840191505092915050565b60006110d78261141c565b6110e18185611474565b93506110f18185602086016114d7565b6110fa8161150a565b840191505092915050565b6000611112602683611474565b91507f4f776e61626c653a206e6577206f776e657220697320746865207a65726f206160008301527f64647265737300000000000000000000000000000000000000000000000000006020830152604082019050919050565b6000611178601483611474565b91507f5469636b657220646f65736e27742065786973740000000000000000000000006000830152602082019050919050565b60006111b8602083611474565b91507f4f776e61626c653a2063616c6c6572206973206e6f7420746865206f776e65726000830152602082019050919050565b60006111f8601583611474565b91507f5469636b65722063616e277420626520656d70747900000000000000000000006000830152602082019050919050565b6000611238601683611474565b91507f416464726573732063616e277420626520656d707479000000000000000000006000830152602082019050919050565b611274816114cd565b82525050565b600060208201905061128f6000830184610f84565b92915050565b600060208201905081810360008301526112af8184610f93565b905092915050565b600060208201905081810360008301526112d18184610ff1565b905092915050565b60006020820190506112ee6000830184611066565b92915050565b60006020820190506113096000830184611084565b92915050565b6000602082019050818103600083015261132981846110cc565b905092915050565b6000602082019050818103600083015261134a81611105565b9050919050565b6000602082019050818103600083015261136a8161116b565b9050919050565b6000602082019050818103600083015261138a816111ab565b9050919050565b600060208201905081810360008301526113aa816111eb565b9050919050565b600060208201905081810360008301526113ca8161122b565b9050919050565b60006020820190506113e6600083018461126b565b92915050565b6000602082019050919050565b6000602082019050919050565b600081519050919050565b600081519050919050565b600081519050919050565b6000602082019050919050565b6000602082019050919050565b600082825260208201905092915050565b600082825260208201905092915050565b600082825260208201905092915050565b600082825260208201905092915050565b6000611490826114ad565b9050919050565b60008115159050919050565b6000819050919050565b600073ffffffffffffffffffffffffffffffffffffffff82169050919050565b6000819050919050565b60005b838110156114f55780820151818401526020810190506114da565b83811115611504576000848401525b50505050565b6000601f19601f8301169050919050565b61152481611485565b811461152f57600080fd5b50565b61153b816114a3565b811461154657600080fd5b50565b611552816114cd565b811461155d57600080fd5b5056fea265627a7a723058207d7eb6f465ec3772603aa2590608e049ecaf4650f1afa12652c1d30eeaa9aec46c6578706572696d656e74616cf50037a265627a7a7230582041e0ab80985a1ae9a1dad4492cbabc8d3bc3323d63952fabadb4fd4e80f710886c6578706572696d656e74616cf50037",
  "source": "pragma solidity >=0.4.21 <0.6.0;\npragma experimental ABIEncoderV2;\n\nimport \"./AssetsRegistry.sol\";\n\ncontract AssetsRegistryFactory {\n    event NewRegistry(address creator, AssetsRegistry registry);\n\n    mapping(address => AssetsRegistry) public registries;\n\n    function newRegistry(\n        bytes32[] memory tickers,\n        string[] memory reserveAddresses\n    ) public returns (AssetsRegistry) {\n        AssetsRegistry registry = new AssetsRegistry(tickers, reserveAddresses);\n\n        registry.transferOwnership(msg.sender);\n        registries[msg.sender] = registry;\n        emit NewRegistry(msg.sender, registry);\n\n        return registry;\n    }\n}\n",
  "sourcePath": "/Users/maksm_tolo/Work/emergeum-assets-registry/contracts/AssetsRegistryFactory.sol",
  "compiler": {
    "name": "solc",
    "version": "0.5.8+commit.23d335f2.Emscripten.clang"
  },
  "schemaVersion": "3.0.16",
  "updatedAt": "2019-10-27T14:39:03.355Z",
  "devdoc": {
    "methods": {}
  },
  "userdoc": {
    "methods": {}
  }
}