{
  "contractName": "AssetsRegistry",
  "abi": [
    {
      "constant": true,
      "inputs": [
        {
          "name": "",
          "type": "uint256"
        }
      ],
      "name": "tickersList",
      "outputs": [
        {
          "name": "",
          "type": "bytes32"
        }
      ],
      "payable": false,
      "stateMutability": "view",
      "type": "function"
    },
    {
      "constant": false,
      "inputs": [],
      "name": "renounceOwnership",
      "outputs": [],
      "payable": false,
      "stateMutability": "nonpayable",
      "type": "function"
    },
    {
      "constant": true,
      "inputs": [],
      "name": "owner",
      "outputs": [
        {
          "name": "",
          "type": "address"
        }
      ],
      "payable": false,
      "stateMutability": "view",
      "type": "function"
    },
    {
      "constant": true,
      "inputs": [],
      "name": "isOwner",
      "outputs": [
        {
          "name": "",
          "type": "bool"
        }
      ],
      "payable": false,
      "stateMutability": "view",
      "type": "function"
    },
    {
      "constant": true,
      "inputs": [
        {
          "name": "",
          "type": "bytes32"
        }
      ],
      "name": "assets",
      "outputs": [
        {
          "name": "",
          "type": "bytes32"
        }
      ],
      "payable": false,
      "stateMutability": "view",
      "type": "function"
    },
    {
      "constant": false,
      "inputs": [
        {
          "name": "newOwner",
          "type": "address"
        }
      ],
      "name": "transferOwnership",
      "outputs": [],
      "payable": false,
      "stateMutability": "nonpayable",
      "type": "function"
    },
    {
      "inputs": [
        {
          "name": "tickers",
          "type": "bytes32[]"
        },
        {
          "name": "backupAddresses",
          "type": "bytes32[]"
        }
      ],
      "payable": false,
      "stateMutability": "nonpayable",
      "type": "constructor"
    },
    {
      "anonymous": false,
      "inputs": [
        {
          "indexed": true,
          "name": "previousOwner",
          "type": "address"
        },
        {
          "indexed": true,
          "name": "newOwner",
          "type": "address"
        }
      ],
      "name": "OwnershipTransferred",
      "type": "event"
    },
    {
      "constant": true,
      "inputs": [],
      "name": "getTickers",
      "outputs": [
        {
          "name": "",
          "type": "bytes32[]"
        }
      ],
      "payable": false,
      "stateMutability": "view",
      "type": "function"
    },
    {
      "constant": true,
      "inputs": [],
      "name": "getBackupAddresses",
      "outputs": [
        {
          "name": "backupAddresses",
          "type": "bytes32[]"
        }
      ],
      "payable": false,
      "stateMutability": "view",
      "type": "function"
    },
    {
      "constant": true,
      "inputs": [],
      "name": "getTickersLength",
      "outputs": [
        {
          "name": "",
          "type": "uint256"
        }
      ],
      "payable": false,
      "stateMutability": "view",
      "type": "function"
    },
    {
      "constant": false,
      "inputs": [
        {
          "name": "ticker",
          "type": "bytes32"
        },
        {
          "name": "backupAddress",
          "type": "bytes32"
        }
      ],
      "name": "setAsset",
      "outputs": [],
      "payable": false,
      "stateMutability": "nonpayable",
      "type": "function"
    },
    {
      "constant": false,
      "inputs": [
        {
          "name": "ticker",
          "type": "bytes32"
        }
      ],
      "name": "deleteAsset",
      "outputs": [],
      "payable": false,
      "stateMutability": "nonpayable",
      "type": "function"
    },
    {
      "constant": false,
      "inputs": [],
      "name": "resetAssets",
      "outputs": [],
      "payable": false,
      "stateMutability": "nonpayable",
      "type": "function"
    },
    {
      "constant": true,
      "inputs": [
        {
          "name": "ticker",
          "type": "bytes32"
        }
      ],
      "name": "hasTicker",
      "outputs": [
        {
          "name": "",
          "type": "bool"
        }
      ],
      "payable": false,
      "stateMutability": "view",
      "type": "function"
    }
  ],
  "bytecode": "0x60806040523480156200001157600080fd5b506040516200135a3803806200135a833981018060405260408110156200003757600080fd5b8101908080516401000000008111156200005057600080fd5b828101905060208101848111156200006757600080fd5b81518560208202830111640100000000821117156200008557600080fd5b50509291906020018051640100000000811115620000a257600080fd5b82810190506020810184811115620000b957600080fd5b8151856020820283011164010000000082111715620000d757600080fd5b5050929190505050336000806101000a81548173ffffffffffffffffffffffffffffffffffffffff021916908373ffffffffffffffffffffffffffffffffffffffff1602179055506000809054906101000a900473ffffffffffffffffffffffffffffffffffffffff1673ffffffffffffffffffffffffffffffffffffffff16600073ffffffffffffffffffffffffffffffffffffffff167f8be0079c531659141344cd1fd0a4f28419497f9722a3daafe3b4186f6b6457e060405160405180910390a38051825114620001f7576040517f08c379a00000000000000000000000000000000000000000000000000000000081526004018080602001828103825260308152602001806200132a6030913960400191505060405180910390fd5b60008090505b8251811015620003c7576200022c8382815181106200021857fe5b6020026020010151620003d060201b60201c565b15620002a0576040517f08c379a00000000000000000000000000000000000000000000000000000000081526004018080602001828103825260158152602001807f5469636b65722063616e277420626520656d707479000000000000000000000081525060200191505060405180910390fd5b620002c5828281518110620002b157fe5b6020026020010151620003d060201b60201c565b1562000339576040517f08c379a00000000000000000000000000000000000000000000000000000000081526004018080602001828103825260168152602001807f416464726573732063616e277420626520656d7074790000000000000000000081525060200191505060405180910390fd5b8181815181106200034657fe5b6020026020010151600160008584815181106200035f57fe5b602002602001015181526020019081526020016000208190555060028382815181106200038857fe5b602002602001015190806001815401808255809150509060018203906000526020600020016000909192909190915055508080600101915050620001fd565b50505062000412565b60008060f81b82600060208110620003e457fe5b1a60f81b7effffffffffffffffffffffffffffffffffffffffffffffffffffffffffffff1916149050919050565b610f0880620004226000396000f3fe608060405234801561001057600080fd5b50600436106100cf5760003560e01c8063715018a61161008c5780638f32d59b116100665780638f32d59b146102b65780639fda5b66146102d8578063f2fde38b1461031a578063fae45ad51461035e576100cf565b8063715018a61461023457806377e6b6a61461023e5780638da5cb5b1461026c576100cf565b806301068dea146100d45780631476d0b7146101335780632395898f146101515780633406bfac146101b05780635e164bb2146101ba578063706ed5cf146101f2575b600080fd5b6100dc6103a4565b6040518080602001828103825283818151815260200191508051906020019060200280838360005b8381101561011f578082015181840152602081019050610104565b505050509050019250505060405180910390f35b61013b6103fc565b6040518082815260200191505060405180910390f35b610159610409565b6040518080602001828103825283818151815260200191508051906020019060200280838360005b8381101561019c578082015181840152602081019050610181565b505050509050019250505060405180910390f35b6101b86104ac565b005b6101f0600480360360408110156101d057600080fd5b810190808035906020019092919080359060200190929190505050610587565b005b61021e6004803603602081101561020857600080fd5b8101908080359060200190929190505050610759565b6040518082815260200191505060405180910390f35b61023c61077a565b005b61026a6004803603602081101561025457600080fd5b81019080803590602001909291905050506108b3565b005b610274610a47565b604051808273ffffffffffffffffffffffffffffffffffffffff1673ffffffffffffffffffffffffffffffffffffffff16815260200191505060405180910390f35b6102be610a70565b604051808215151515815260200191505060405180910390f35b610304600480360360208110156102ee57600080fd5b8101908080359060200190929190505050610ac7565b6040518082815260200191505060405180910390f35b61035c6004803603602081101561033057600080fd5b81019080803573ffffffffffffffffffffffffffffffffffffffff169060200190929190505050610adf565b005b61038a6004803603602081101561037457600080fd5b8101908080359060200190929190505050610b65565b604051808215151515815260200191505060405180910390f35b606060028054806020026020016040519081016040528092919081815260200182805480156103f257602002820191906000526020600020905b8154815260200190600101908083116103de575b5050505050905090565b6000600280549050905090565b606060028054905060405190808252806020026020018201604052801561043f5781602001602082028038833980820191505090505b50905060008090505b6002805490508110156104a557600160006002838154811061046657fe5b906000526020600020015481526020019081526020016000205482828151811061048c57fe5b6020026020010181815250508080600101915050610448565b5080905090565b6104b4610a70565b610526576040517f08c379a00000000000000000000000000000000000000000000000000000000081526004018080602001828103825260208152602001807f4f776e61626c653a2063616c6c6572206973206e6f7420746865206f776e657281525060200191505060405180910390fd5b60008090505b60028054905081101561057457600160006002838154811061054a57fe5b9060005260206000200154815260200190815260200160002060009055808060010191505061052c565b5060006002816105849190610e65565b50565b61058f610a70565b610601576040517f08c379a00000000000000000000000000000000000000000000000000000000081526004018080602001828103825260208152602001807f4f776e61626c653a2063616c6c6572206973206e6f7420746865206f776e657281525060200191505060405180910390fd5b61060a82610b8b565b1561067d576040517f08c379a00000000000000000000000000000000000000000000000000000000081526004018080602001828103825260158152602001807f5469636b65722063616e277420626520656d707479000000000000000000000081525060200191505060405180910390fd5b61068681610b8b565b156106f9576040517f08c379a00000000000000000000000000000000000000000000000000000000081526004018080602001828103825260168152602001807f416464726573732063616e277420626520656d7074790000000000000000000081525060200191505060405180910390fd5b61070282610b65565b156107115761071082610bcc565b5b80600160008481526020019081526020016000208190555060028290806001815401808255809150509060018203906000526020600020016000909192909190915055505050565b6002818154811061076657fe5b906000526020600020016000915090505481565b610782610a70565b6107f4576040517f08c379a00000000000000000000000000000000000000000000000000000000081526004018080602001828103825260208152602001807f4f776e61626c653a2063616c6c6572206973206e6f7420746865206f776e657281525060200191505060405180910390fd5b600073ffffffffffffffffffffffffffffffffffffffff166000809054906101000a900473ffffffffffffffffffffffffffffffffffffffff1673ffffffffffffffffffffffffffffffffffffffff167f8be0079c531659141344cd1fd0a4f28419497f9722a3daafe3b4186f6b6457e060405160405180910390a360008060006101000a81548173ffffffffffffffffffffffffffffffffffffffff021916908373ffffffffffffffffffffffffffffffffffffffff160217905550565b6108bb610a70565b61092d576040517f08c379a00000000000000000000000000000000000000000000000000000000081526004018080602001828103825260208152602001807f4f776e61626c653a2063616c6c6572206973206e6f7420746865206f776e657281525060200191505060405180910390fd5b61093681610b8b565b156109a9576040517f08c379a00000000000000000000000000000000000000000000000000000000081526004018080602001828103825260158152602001807f5469636b65722063616e277420626520656d707479000000000000000000000081525060200191505060405180910390fd5b6109b281610b65565b610a24576040517f08c379a00000000000000000000000000000000000000000000000000000000081526004018080602001828103825260148152602001807f5469636b657220646f65736e277420657869737400000000000000000000000081525060200191505060405180910390fd5b6001600082815260200190815260200160002060009055610a4481610bcc565b50565b60008060009054906101000a900473ffffffffffffffffffffffffffffffffffffffff16905090565b60008060009054906101000a900473ffffffffffffffffffffffffffffffffffffffff1673ffffffffffffffffffffffffffffffffffffffff163373ffffffffffffffffffffffffffffffffffffffff1614905090565b60016020528060005260406000206000915090505481565b610ae7610a70565b610b59576040517f08c379a00000000000000000000000000000000000000000000000000000000081526004018080602001828103825260208152602001807f4f776e61626c653a2063616c6c6572206973206e6f7420746865206f776e657281525060200191505060405180910390fd5b610b6281610c51565b50565b6000610b836001600084815260200190815260200160002054610b8b565b159050919050565b60008060f81b82600060208110610b9e57fe5b1a60f81b7effffffffffffffffffffffffffffffffffffffffffffffffffffffffffffff1916149050919050565b6000610bd782610d95565b9050600260016002805490500381548110610bee57fe5b906000526020600020015460028281548110610c0657fe5b9060005260206000200181905550600260016002805490500381548110610c2957fe5b90600052602060002001600090556002805480919060019003610c4c9190610e65565b505050565b600073ffffffffffffffffffffffffffffffffffffffff168173ffffffffffffffffffffffffffffffffffffffff161415610cd7576040517f08c379a0000000000000000000000000000000000000000000000000000000008152600401808060200182810382526026815260200180610eb76026913960400191505060405180910390fd5b8073ffffffffffffffffffffffffffffffffffffffff166000809054906101000a900473ffffffffffffffffffffffffffffffffffffffff1673ffffffffffffffffffffffffffffffffffffffff167f8be0079c531659141344cd1fd0a4f28419497f9722a3daafe3b4186f6b6457e060405160405180910390a3806000806101000a81548173ffffffffffffffffffffffffffffffffffffffff021916908373ffffffffffffffffffffffffffffffffffffffff16021790555050565b6000610da082610b65565b610e12576040517f08c379a00000000000000000000000000000000000000000000000000000000081526004018080602001828103825260148152602001807f5469636b657220646f65736e277420657869737400000000000000000000000081525060200191505060405180910390fd5b60008090505b600280549050811015610e5a578260028281548110610e3357fe5b90600052602060002001541415610e4d5780915050610e60565b8080600101915050610e18565b50600090505b919050565b815481835581811115610e8c57818360005260206000209182019101610e8b9190610e91565b5b505050565b610eb391905b80821115610eaf576000816000905550600101610e97565b5090565b9056fe4f776e61626c653a206e6577206f776e657220697320746865207a65726f2061646472657373a165627a7a723058203022878c09fb582b9f22a16e22c4be4d50147acc254dd0103e3af227ffc6539b00295469636b657273206c656e677468206d75737420626520657175616c20746f20616464726573736573206c656e677468",
  "source": "pragma solidity >=0.4.21 <0.6.0;\n\nimport \"@openzeppelin/contracts/ownership/Ownable.sol\";\n\ncontract AssetsRegistry is Ownable {\n    /**\n     * @dev Key is a ticker, values is a backup address\n     */\n    mapping(bytes32 => bytes32) public assets;\n\n    bytes32[] public tickersList;\n\n    constructor(bytes32[] memory tickers, bytes32[] memory backupAddresses) public {\n        require(tickers.length == backupAddresses.length, \"Tickers length must be equal to addresses length\");\n\n        for (uint i = 0; i < tickers.length; i++) {\n            require(!isEmpty(tickers[i]), \"Ticker can't be empty\");\n            require(!isEmpty(backupAddresses[i]), \"Address can't be empty\");\n\n            assets[tickers[i]] = backupAddresses[i];\n            tickersList.push(tickers[i]);\n        }\n    }\n\n    function isEmpty(bytes32 val) internal pure returns(bool) {\n        return val[0] == 0;\n    }\n\n    function getTickers() external view returns(bytes32[] memory) {\n        return tickersList;\n    }\n\n    function getBackupAddresses() external view returns(bytes32[] memory backupAddresses) {\n        backupAddresses = new bytes32[](tickersList.length);\n\n        for (uint i = 0; i < tickersList.length; i++) {\n            backupAddresses[i] = assets[tickersList[i]];\n        }\n\n        return backupAddresses;\n    }\n\n    function getTickersLength() external view returns(uint256) {\n        return tickersList.length;\n    }\n\n    function setAsset(bytes32 ticker, bytes32 backupAddress) external onlyOwner {\n        require(!isEmpty(ticker), \"Ticker can't be empty\");\n        require(!isEmpty(backupAddress), \"Address can't be empty\");\n\n        if (hasTicker(ticker)) {\n            removeFromArray(ticker);\n        }\n\n        assets[ticker] = backupAddress;\n        tickersList.push(ticker);\n    }\n\n    function deleteAsset(bytes32 ticker) external onlyOwner {\n        require(!isEmpty(ticker), \"Ticker can't be empty\");\n        require(hasTicker(ticker), \"Ticker doesn't exist\");\n\n        delete assets[ticker];\n        removeFromArray(ticker);\n    }\n\n    function resetAssets() external onlyOwner {\n        for (uint i = 0; i < tickersList.length; i++) {\n            delete assets[tickersList[i]];\n        }\n\n        tickersList.length = 0;\n    }\n\n    function removeFromArray(bytes32 ticker) internal {\n        uint index = getIndexByTicker(ticker);\n\n        tickersList[index] = tickersList[tickersList.length-1];\n        delete tickersList[tickersList.length - 1];\n        tickersList.length--;\n    }\n\n    function hasTicker(bytes32 ticker) public view returns (bool) {\n        return !isEmpty(assets[ticker]);\n    }\n\n    function getIndexByTicker(bytes32 ticker) internal view returns (uint) {\n        require(hasTicker(ticker), \"Ticker doesn't exist\");\n\n        for (uint i = 0; i < tickersList.length; i++) {\n            if (tickersList[i] == ticker) {\n                return i;\n            }\n        }\n\n        return 0;\n    }\n}\n",
  "sourcePath": "/Users/maksm_tolo/Work/emergeum-assets-registry/contracts/AssetsRegistry.sol",
  "compiler": {
    "name": "solc",
    "version": "0.5.8+commit.23d335f2.Emscripten.clang"
  },
  "schemaVersion": "3.0.16",
  "updatedAt": "2019-10-26T22:01:40.211Z",
  "devdoc": {
    "methods": {
      "isOwner()": {
        "details": "Returns true if the caller is the current owner."
      },
      "owner()": {
        "details": "Returns the address of the current owner."
      },
      "renounceOwnership()": {
        "details": "Leaves the contract without owner. It will not be possible to call `onlyOwner` functions anymore. Can only be called by the current owner.     * > Note: Renouncing ownership will leave the contract without an owner, thereby removing any functionality that is only available to the owner."
      },
      "transferOwnership(address)": {
        "details": "Transfers ownership of the contract to a new account (`newOwner`). Can only be called by the current owner."
      }
    }
  },
  "userdoc": {
    "methods": {}
  }
}