{
  "contractName": "AssetsRegistryFactory",
  "abi": [
    {
      "constant": true,
      "inputs": [
        {
          "name": "",
          "type": "address"
        }
      ],
      "name": "registries",
      "outputs": [
        {
          "name": "",
          "type": "address"
        }
      ],
      "payable": false,
      "stateMutability": "view",
      "type": "function"
    },
    {
      "anonymous": false,
      "inputs": [
        {
          "indexed": false,
          "name": "creator",
          "type": "address"
        },
        {
          "indexed": false,
          "name": "registry",
          "type": "address"
        }
      ],
      "name": "NewRegistry",
      "type": "event"
    },
    {
      "constant": false,
      "inputs": [
        {
          "name": "tickers",
          "type": "bytes32[]"
        },
        {
          "name": "reserveAddresses",
          "type": "bytes32[]"
        }
      ],
      "name": "newRegistry",
      "outputs": [
        {
          "name": "",
          "type": "address"
        }
      ],
      "payable": false,
      "stateMutability": "nonpayable",
      "type": "function"
    }
  ],
  "bytecode": "0x608060405234801561001057600080fd5b50611785806100206000396000f3fe608060405234801561001057600080fd5b50600436106100365760003560e01c80637af6f2161461003b578063caed80df146101c7575b600080fd5b6101856004803603604081101561005157600080fd5b810190808035906020019064010000000081111561006e57600080fd5b82018360208201111561008057600080fd5b803590602001918460208302840111640100000000831117156100a257600080fd5b919080806020026020016040519081016040528093929190818152602001838360200280828437600081840152601f19601f8201169050808301925050505050505091929192908035906020019064010000000081111561010257600080fd5b82018360208201111561011457600080fd5b8035906020019184602083028401116401000000008311171561013657600080fd5b919080806020026020016040519081016040528093929190818152602001838360200280828437600081840152601f19601f82011690508083019250505050505050919291929050505061024b565b604051808273ffffffffffffffffffffffffffffffffffffffff1673ffffffffffffffffffffffffffffffffffffffff16815260200191505060405180910390f35b610209600480360360208110156101dd57600080fd5b81019080803573ffffffffffffffffffffffffffffffffffffffff1690602001909291905050506104c3565b604051808273ffffffffffffffffffffffffffffffffffffffff1673ffffffffffffffffffffffffffffffffffffffff16815260200191505060405180910390f35b600080838360405161025c906104f6565b808060200180602001838103835285818151815260200191508051906020019060200280838360005b838110156102a0578082015181840152602081019050610285565b50505050905001838103825284818151815260200191508051906020019060200280838360005b838110156102e25780820151818401526020810190506102c7565b50505050905001945050505050604051809103906000f08015801561030b573d6000803e3d6000fd5b5090508073ffffffffffffffffffffffffffffffffffffffff1663f2fde38b336040518263ffffffff1660e01b8152600401808273ffffffffffffffffffffffffffffffffffffffff1673ffffffffffffffffffffffffffffffffffffffff168152602001915050600060405180830381600087803b15801561038d57600080fd5b505af11580156103a1573d6000803e3d6000fd5b50505050806000803373ffffffffffffffffffffffffffffffffffffffff1673ffffffffffffffffffffffffffffffffffffffff16815260200190815260200160002060006101000a81548173ffffffffffffffffffffffffffffffffffffffff021916908373ffffffffffffffffffffffffffffffffffffffff1602179055507fadd7af43f9a85eafaa90553363766e67ad81235c4895856c4d14384337d0ce113382604051808373ffffffffffffffffffffffffffffffffffffffff1673ffffffffffffffffffffffffffffffffffffffff1681526020018273ffffffffffffffffffffffffffffffffffffffff1673ffffffffffffffffffffffffffffffffffffffff1681526020019250505060405180910390a18091505092915050565b60006020528060005260406000206000915054906101000a900473ffffffffffffffffffffffffffffffffffffffff1681565b611256806105048339019056fe60806040523480156200001157600080fd5b506040516200125638038062001256833981018060405260408110156200003757600080fd5b8101908080516401000000008111156200005057600080fd5b828101905060208101848111156200006757600080fd5b81518560208202830111640100000000821117156200008557600080fd5b50509291906020018051640100000000811115620000a257600080fd5b82810190506020810184811115620000b957600080fd5b8151856020820283011164010000000082111715620000d757600080fd5b5050929190505050336000806101000a81548173ffffffffffffffffffffffffffffffffffffffff021916908373ffffffffffffffffffffffffffffffffffffffff1602179055506000809054906101000a900473ffffffffffffffffffffffffffffffffffffffff1673ffffffffffffffffffffffffffffffffffffffff16600073ffffffffffffffffffffffffffffffffffffffff167f8be0079c531659141344cd1fd0a4f28419497f9722a3daafe3b4186f6b6457e060405160405180910390a38051825114620001f7576040517f08c379a0000000000000000000000000000000000000000000000000000000008152600401808060200182810382526030815260200180620012266030913960400191505060405180910390fd5b60008090505b8251811015620003b1576000801b8382815181106200021857fe5b6020026020010151141562000295576040517f08c379a00000000000000000000000000000000000000000000000000000000081526004018080602001828103825260158152602001807f5469636b65722063616e277420626520656d707479000000000000000000000081525060200191505060405180910390fd5b6000801b828281518110620002a657fe5b6020026020010151141562000323576040517f08c379a00000000000000000000000000000000000000000000000000000000081526004018080602001828103825260168152602001807f416464726573732063616e277420626520656d7074790000000000000000000081525060200191505060405180910390fd5b8181815181106200033057fe5b6020026020010151600160008584815181106200034957fe5b602002602001015181526020019081526020016000208190555060028382815181106200037257fe5b602002602001015190806001815401808255809150509060018203906000526020600020016000909192909190915055508080600101915050620001fd565b505050610e6280620003c46000396000f3fe608060405234801561001057600080fd5b50600436106100b45760003560e01c806377e6b6a61161007157806377e6b6a6146101c45780638da5cb5b146101f25780638f32d59b1461023c5780639fda5b661461025e578063c95f35e2146102a0578063f2fde38b146102ff576100b4565b806301068dea146100b95780631476d0b7146101185780633406bfac146101365780635e164bb214610140578063706ed5cf14610178578063715018a6146101ba575b600080fd5b6100c1610343565b6040518080602001828103825283818151815260200191508051906020019060200280838360005b838110156101045780820151818401526020810190506100e9565b505050509050019250505060405180910390f35b61012061039b565b6040518082815260200191505060405180910390f35b61013e6103a8565b005b6101766004803603604081101561015657600080fd5b810190808035906020019092919080359060200190929190505050610487565b005b6101a46004803603602081101561018e57600080fd5b8101908080359060200190929190505050610653565b6040518082815260200191505060405180910390f35b6101c2610674565b005b6101f0600480360360208110156101da57600080fd5b81019080803590602001909291905050506107ad565b005b6101fa610942565b604051808273ffffffffffffffffffffffffffffffffffffffff1673ffffffffffffffffffffffffffffffffffffffff16815260200191505060405180910390f35b61024461096b565b604051808215151515815260200191505060405180910390f35b61028a6004803603602081101561027457600080fd5b81019080803590602001909291905050506109c2565b6040518082815260200191505060405180910390f35b6102a86109da565b6040518080602001828103825283818151815260200191508051906020019060200280838360005b838110156102eb5780820151818401526020810190506102d0565b505050509050019250505060405180910390f35b6103416004803603602081101561031557600080fd5b81019080803573ffffffffffffffffffffffffffffffffffffffff169060200190929190505050610a7d565b005b6060600280548060200260200160405190810160405280929190818152602001828054801561039157602002820191906000526020600020905b81548152602001906001019080831161037d575b5050505050905090565b6000600280549050905090565b6103b061096b565b610422576040517f08c379a00000000000000000000000000000000000000000000000000000000081526004018080602001828103825260208152602001807f4f776e61626c653a2063616c6c6572206973206e6f7420746865206f776e657281525060200191505060405180910390fd5b60008090505b600280549050811015610474576000801b600160006002848154811061044a57fe5b90600052602060002001548152602001908152602001600020819055508080600101915050610428565b5060006002816104849190610dbf565b50565b61048f61096b565b610501576040517f08c379a00000000000000000000000000000000000000000000000000000000081526004018080602001828103825260208152602001807f4f776e61626c653a2063616c6c6572206973206e6f7420746865206f776e657281525060200191505060405180910390fd5b6000801b82141561057a576040517f08c379a00000000000000000000000000000000000000000000000000000000081526004018080602001828103825260158152602001807f5469636b65722063616e277420626520656d707479000000000000000000000081525060200191505060405180910390fd5b6000801b8114156105f3576040517f08c379a00000000000000000000000000000000000000000000000000000000081526004018080602001828103825260168152602001807f416464726573732063616e277420626520656d7074790000000000000000000081525060200191505060405180910390fd5b6105fc82610b03565b1561060b5761060a82610b26565b5b80600160008481526020019081526020016000208190555060028290806001815401808255809150509060018203906000526020600020016000909192909190915055505050565b6002818154811061066057fe5b906000526020600020016000915090505481565b61067c61096b565b6106ee576040517f08c379a00000000000000000000000000000000000000000000000000000000081526004018080602001828103825260208152602001807f4f776e61626c653a2063616c6c6572206973206e6f7420746865206f776e657281525060200191505060405180910390fd5b600073ffffffffffffffffffffffffffffffffffffffff166000809054906101000a900473ffffffffffffffffffffffffffffffffffffffff1673ffffffffffffffffffffffffffffffffffffffff167f8be0079c531659141344cd1fd0a4f28419497f9722a3daafe3b4186f6b6457e060405160405180910390a360008060006101000a81548173ffffffffffffffffffffffffffffffffffffffff021916908373ffffffffffffffffffffffffffffffffffffffff160217905550565b6107b561096b565b610827576040517f08c379a00000000000000000000000000000000000000000000000000000000081526004018080602001828103825260208152602001807f4f776e61626c653a2063616c6c6572206973206e6f7420746865206f776e657281525060200191505060405180910390fd5b6000801b8114156108a0576040517f08c379a00000000000000000000000000000000000000000000000000000000081526004018080602001828103825260158152602001807f5469636b65722063616e277420626520656d707479000000000000000000000081525060200191505060405180910390fd5b6108a981610b03565b61091b576040517f08c379a00000000000000000000000000000000000000000000000000000000081526004018080602001828103825260148152602001807f5469636b657220646f65736e277420657869737400000000000000000000000081525060200191505060405180910390fd5b6000801b600160008381526020019081526020016000208190555061093f81610b26565b50565b60008060009054906101000a900473ffffffffffffffffffffffffffffffffffffffff16905090565b60008060009054906101000a900473ffffffffffffffffffffffffffffffffffffffff1673ffffffffffffffffffffffffffffffffffffffff163373ffffffffffffffffffffffffffffffffffffffff1614905090565b60016020528060005260406000206000915090505481565b6060600280549050604051908082528060200260200182016040528015610a105781602001602082028038833980820191505090505b50905060008090505b600280549050811015610a76576001600060028381548110610a3757fe5b9060005260206000200154815260200190815260200160002054828281518110610a5d57fe5b6020026020010181815250508080600101915050610a19565b5080905090565b610a8561096b565b610af7576040517f08c379a00000000000000000000000000000000000000000000000000000000081526004018080602001828103825260208152602001807f4f776e61626c653a2063616c6c6572206973206e6f7420746865206f776e657281525060200191505060405180910390fd5b610b0081610bab565b50565b60008060001b600160008481526020019081526020016000205414159050919050565b6000610b3182610cef565b9050600260016002805490500381548110610b4857fe5b906000526020600020015460028281548110610b6057fe5b9060005260206000200181905550600260016002805490500381548110610b8357fe5b90600052602060002001600090556002805480919060019003610ba69190610dbf565b505050565b600073ffffffffffffffffffffffffffffffffffffffff168173ffffffffffffffffffffffffffffffffffffffff161415610c31576040517f08c379a0000000000000000000000000000000000000000000000000000000008152600401808060200182810382526026815260200180610e116026913960400191505060405180910390fd5b8073ffffffffffffffffffffffffffffffffffffffff166000809054906101000a900473ffffffffffffffffffffffffffffffffffffffff1673ffffffffffffffffffffffffffffffffffffffff167f8be0079c531659141344cd1fd0a4f28419497f9722a3daafe3b4186f6b6457e060405160405180910390a3806000806101000a81548173ffffffffffffffffffffffffffffffffffffffff021916908373ffffffffffffffffffffffffffffffffffffffff16021790555050565b6000610cfa82610b03565b610d6c576040517f08c379a00000000000000000000000000000000000000000000000000000000081526004018080602001828103825260148152602001807f5469636b657220646f65736e277420657869737400000000000000000000000081525060200191505060405180910390fd5b60008090505b600280549050811015610db4578260028281548110610d8d57fe5b90600052602060002001541415610da75780915050610dba565b8080600101915050610d72565b50600090505b919050565b815481835581811115610de657818360005260206000209182019101610de59190610deb565b5b505050565b610e0d91905b80821115610e09576000816000905550600101610df1565b5090565b9056fe4f776e61626c653a206e6577206f776e657220697320746865207a65726f2061646472657373a165627a7a7230582078b6ec60dcedb050850c6b51796e1148d6d451930179c7a1a090cc662e75315a00295469636b657273206c656e677468206d75737420626520657175616c20746f20616464726573736573206c656e677468a165627a7a723058200311e00d1740cdbc1c925e6ffd5a5520a98118c49712e44544da8d67c21cb8370029",
  "source": "pragma solidity >=0.4.21 <0.6.0;\n\nimport \"./AssetsRegistry.sol\";\n\ncontract AssetsRegistryFactory {\n    event NewRegistry(address creator, AssetsRegistry registry);\n\n    mapping(address => AssetsRegistry) public registries;\n\n    function newRegistry(\n        bytes32[] memory tickers,\n        bytes32[] memory reserveAddresses\n    ) public returns (AssetsRegistry) {\n        AssetsRegistry registry = new AssetsRegistry(tickers, reserveAddresses);\n\n        registry.transferOwnership(msg.sender);\n        registries[msg.sender] = registry;\n        emit NewRegistry(msg.sender, registry);\n\n        return registry;\n    }\n}\n",
  "sourcePath": "/Users/maksm_tolo/Work/emergeum-assets-registry/contracts/AssetsRegistryFactory.sol",
  "compiler": {
    "name": "solc",
    "version": "0.5.8+commit.23d335f2.Emscripten.clang"
  },
  "schemaVersion": "3.0.16",
  "updatedAt": "2019-10-26T16:08:23.175Z",
  "devdoc": {
    "methods": {}
  },
  "userdoc": {
    "methods": {}
  }
}